nimish@nimish-UX31A:~/work/hacking/umasscoin/coin_impl/bitcoind-stable-umass/src$./bitcoind getbalance
0.00000000


nimish@nimish-UX31A:~/work/hacking/umasscoin/coin_impl/bitcoind-stable-umass/src$ ./bitcoind sendtoaddress n4CFSngUFmBDiA5azRvfc91PPUNn1Bnkan 1 "first transaction"
error: {"code":-4,"message":"Insufficient funds"}




nimish@nimish-UX31A:~/work/hacking/umasscoin/coin_impl/bitcoind-stable-umass/src$ ./bitcoind gettransaction 0823de6ab6809d2c33ee3c314013bf21978984554e3d04a29a51f40f05e1ca78
{
  "amount" : 50.00000000,
    "confirmations" : 4,
    "generated" : true,
    "blockhash" : "000000007dd2902475e29df7d4b08a8f8c86aac54767c57a33604f6e879ab6cd",
    "blockindex" : 0,
    "blocktime" : 1399148856,
    "txid" : "0823de6ab6809d2c33ee3c314013bf21978984554e3d04a29a51f40f05e1ca78",
    "time" : 1399148856,
    "timereceived" : 1399148856,
    "details" : [
    {
      "account" : "",
      "address" : "mnqn4V3hCdE7ypFz3W1nxCRdZtuuDm5Jiz",
      "category" : "generate",
      "amount" : 50.00000000
    }
  ]
}




nimish@nimish-UX31A:~/work/hacking/umasscoin/coin_impl/bitcoind-stable-umass/src$ ./bitcoind sendtoaddress n4CFSngUFmBDiA5azRvfc91PPUNn1Bnkan 10 "first transaction"
e85d9e6b4db5db3889ac5c0a9e4a4bbd858f8a1c646490f2dcb365ccab54a721
nimish@nimish-UX31A:~/work/hacking/umasscoin/coin_impl/bitcoind-stable-umass/src$ ./bitcoind getransaction e85d9e6b4db5db3889ac5c0a9e4a4bbd858f8a1c646490f2dcb365ccab54a721
error: {"code":-32601,"message":"Method not found"}
nimish@nimish-UX31A:~/work/hacking/umasscoin/coin_impl/bitcoind-stable-umass/src$ ./bitcoind gettransaction e85d9e6b4db5db3889ac5c0a9e4a4bbd858f8a1c646490f2dcb365ccab54a721
{
  "amount" : -10.00000000,
    "fee" : -0.00010000,
    "confirmations" : 0,
    "txid" : "e85d9e6b4db5db3889ac5c0a9e4a4bbd858f8a1c646490f2dcb365ccab54a721",
    "time" : 1399163770,
    "timereceived" : 1399163770,
    "comment" : "first transaction",
    "details" : [
    {
      "account" : "",
      "address" : "n4CFSngUFmBDiA5azRvfc91PPUNn1Bnkan",
      "category" : "send",
      "amount" : -10.00000000,
      "fee" : -0.00010000
    }
  ]
}








nimish@nimish-UX31A:~/work/hacking/umasscoin/coin_impl/bitcoind-stable-umass/src$ ./bitcoind getmininginfo
{
  "blocks" : 5,
    "currentblocksize" : 1000,
    "currentblocktx" : 0,
    "difficulty" : 1.00000000,
    "errors" : "",
    "generate" : true,
    "genproclimit" : 3,
    "hashespersec" : 2239010,
    "pooledtx" : 0,
    "testnet" : true
}
nimish@nimish-UX31A:~/work/hacking/umasscoin/coin_impl/bitcoind-stable-umass/src$ ./bitcoind getblockhash 5
00000000f19838ee845f097489a65bd99fa91e35f3a0ca80c97ad562d561d79b
nimish@nimish-UX31A:~/work/hacking/umasscoin/coin_impl/bitcoind-stable-umass/src$ ./bitcoind getblock 00000000f19838ee845f097489a65bd99fa91e35f3a0ca80c97ad562d561d79b
{
  "hash" : "00000000f19838ee845f097489a65bd99fa91e35f3a0ca80c97ad562d561d79b",
    "confirmations" : 1,
    "size" : 378,
    "height" : 5,
    "version" : 2,
    "merkleroot" : "f0283bb50b69ed1f63a56094062282de48dde1f2dc2facbde6353db98e5d4acf",
    "tx" : [
      "2492b22b64059a729c72ca645a3645b690baca52b0fb31a1108249c3616f4527",
    "e85d9e6b4db5db3889ac5c0a9e4a4bbd858f8a1c646490f2dcb365ccab54a721"
      ],
    "time" : 1399164282,
    "nonce" : 1261340436,
    "bits" : "1d00ffff",
    "difficulty" : 1.00000000,
    "previousblockhash" : "00000000bb4fba1049c52b4d300f3ea9a34e6c02545dc6d46379686a20ad48ae"
}
nimish@nimish-UX31A:~/work/hacking/umasscoin/coin_impl/bitcoind-stable-umass/src$ ./bitcoind gettransaction 2492b22b64059a729c72ca645a3645b690baca52b0fb31a1108249c3616f4527
{
  "amount" : 0.00000000,
    "confirmations" : 1,
    "generated" : true,
    "blockhash" : "00000000f19838ee845f097489a65bd99fa91e35f3a0ca80c97ad562d561d79b",
    "blockindex" : 0,
    "blocktime" : 1399164282,
    "txid" : "2492b22b64059a729c72ca645a3645b690baca52b0fb31a1108249c3616f4527",
    "time" : 1399164282,
    "timereceived" : 1399164282,
    "details" : [
    {
      "account" : "",
      "address" : "mhjR1nmnCJjsQ4VYC3fVoWb3AhPQjxhc2K",
      "category" : "immature",
      "amount" : 50.00010000
    }
  ]
}
nimish@nimish-UX31A:~/work/hacking/umasscoin/coin_impl/bitcoind-stable-umass/src$ ./bitcoind gettransaction e85d9e6b4db5db3889ac5c0a9e4a4bbd858f8a1c646490f2dcb365ccab54a721
{
  "amount" : -10.00000000,
    "fee" : -0.00010000,
    "confirmations" : 1,
    "blockhash" : "00000000f19838ee845f097489a65bd99fa91e35f3a0ca80c97ad562d561d79b",
    "blockindex" : 1,
    "blocktime" : 1399164282,
    "txid" : "e85d9e6b4db5db3889ac5c0a9e4a4bbd858f8a1c646490f2dcb365ccab54a721",
    "time" : 1399163770,
    "timereceived" : 1399163770,
    "comment" : "first transaction",
    "details" : [
    {
      "account" : "",
      "address" : "n4CFSngUFmBDiA5azRvfc91PPUNn1Bnkan",
      "category" : "send",
      "amount" : -10.00000000,
      "fee" : -0.00010000
    }
  ]
}








./bitcoind gettransaction e85d9e6b4db5db3889ac5c0a9e4a4bbd858f8a1c646490f2dcb365ccab54a721
{
  "amount" : 10.00000000,
    "confirmations" : 1,
    "blockhash" : "00000000f19838ee845f097489a65bd99fa91e35f3a0ca80c97ad562d561d79b",
    "blockindex" : 1,
    "blocktime" : 1399164282,
    "txid" : "e85d9e6b4db5db3889ac5c0a9e4a4bbd858f8a1c646490f2dcb365ccab54a721",
    "time" : 1399163770,
    "timereceived" : 1399163770,
    "details" : [
    {
      "account" : "",
      "address" : "n4CFSngUFmBDiA5azRvfc91PPUNn1Bnkan",
      "category" : "receive",
      "amount" : 10.00000000
    }
  ]
}







nimish@nimish-UX31A:~/work/hacking/umasscoin/coin_impl/bitcoind-stable-umass/src$ ./bitcoind listtransactions ""
[
{
  "account" : "",
    "address" : "mnqn4V3hCdE7ypFz3W1nxCRdZtuuDm5Jiz",
    "category" : "generate",
    "amount" : 50.00000000,
    "confirmations" : 5,
    "generated" : true,
    "blockhash" : "000000007dd2902475e29df7d4b08a8f8c86aac54767c57a33604f6e879ab6cd",
    "blockindex" : 0,
    "blocktime" : 1399148856,
    "txid" : "0823de6ab6809d2c33ee3c314013bf21978984554e3d04a29a51f40f05e1ca78",
    "time" : 1399148856,
    "timereceived" : 1399148856
},
{
  "account" : "",
  "address" : "n1PE3nqPDq8obYsG8CBYtp84ukVfZMGPoi",
  "category" : "generate",
  "amount" : 50.00000000,
  "confirmations" : 4,
  "generated" : true,
  "blockhash" : "000000008798075c26f98394cb6b9c285b965a8b43eee4a50946a3c0b250a45f",
  "blockindex" : 0,
  "blocktime" : 1399159363,
  "txid" : "29967fed6f60022d8c157b806dbc317a36609c302da74219c1376df279a3bf64",
  "time" : 1399159363,
  "timereceived" : 1399159363
},
{
  "account" : "",
  "address" : "n4p3rAczNN7SSYguqtr1oEjtu9hgRtw8MV",
  "category" : "generate",
  "amount" : 50.00000000,
  "confirmations" : 3,
  "generated" : true,
  "blockhash" : "000000004796b040f42fe6ccf17ac8e4739a3c86185321f3b3bd6e8f138f5814",
  "blockindex" : 0,
  "blocktime" : 1399163607,
  "txid" : "fc9fd0963562f965b80aa1f79996ebfcb6983f5ba304d534423519cc7fd9fbde",
  "time" : 1399163607,
  "timereceived" : 1399163607
},
{
  "account" : "",
  "address" : "mjmdRFMMj6eegoFrd4HkkZ5mwVzp3xMSif",
  "category" : "immature",
  "amount" : 50.00000000,
  "confirmations" : 2,
  "generated" : true,
  "blockhash" : "00000000bb4fba1049c52b4d300f3ea9a34e6c02545dc6d46379686a20ad48ae",
  "blockindex" : 0,
  "blocktime" : 1399163652,
  "txid" : "2fc1de18fed8e4613b1d039802a045c084a8ae948dc907d8f999d8f19162fd86",
  "time" : 1399163652,
  "timereceived" : 1399163652
},
{
  "account" : "",
  "address" : "n4CFSngUFmBDiA5azRvfc91PPUNn1Bnkan",
  "category" : "send",
  "amount" : -10.00000000,
  "fee" : -0.00010000,
  "confirmations" : 1,
  "blockhash" : "00000000f19838ee845f097489a65bd99fa91e35f3a0ca80c97ad562d561d79b",
  "blockindex" : 1,
  "blocktime" : 1399164282,
  "txid" : "e85d9e6b4db5db3889ac5c0a9e4a4bbd858f8a1c646490f2dcb365ccab54a721",
  "time" : 1399163770,
  "timereceived" : 1399163770,
  "comment" : "first transaction"
},
{
  "account" : "",
  "address" : "mhjR1nmnCJjsQ4VYC3fVoWb3AhPQjxhc2K",
  "category" : "immature",
  "amount" : 50.00010000,
  "confirmations" : 1,
  "generated" : true,
  "blockhash" : "00000000f19838ee845f097489a65bd99fa91e35f3a0ca80c97ad562d561d79b",
  "blockindex" : 0,
  "blocktime" : 1399164282,
  "txid" : "2492b22b64059a729c72ca645a3645b690baca52b0fb31a1108249c3616f4527",
  "time" : 1399164282,
  "timereceived" : 1399164282
}
]







nimish@nimish-UX31A:~/work/hacking/umasscoin/coin_impl/bitcoind-stable-umass/src$ ./bitcoind getrawtransaction e85d9e6b4db5db3889ac5c0a9e4a4bbd858f8a1c646490f2dcb365ccab54a721 0
010000000164bfa379f26d37c11942a72d309c60367a31bc6d807b158c2d02606fed7f96290000000049483045022100e8ead6e71e6a94a7a7a768dff69e843b68837f2d7033fc9a5684d4f3c120e05a02207363c0632013413b06d8680f341de475978aa6786a5c98e38ab24907409efef501ffffffff02f0006bee000000001976a914a9fda41bc510f39afa8ddee2c35aa582b29d9a8988ac00ca9a3b000000001976a914f8c14e6cc01be9e859ff7ef5907c37e3f158028888ac00000000
nimish@nimish-UX31A:~/work/hacking/umasscoin/coin_impl/bitcoind-stable-umass/src$ ./bitcoind decoderawtransaction 010000000164bfa379f26d37c11942a72d309c60367a31bc6d807b158c2d02606fed7f96290000000049483045022100e8ead6e71e6a94a7a7a768dff69e843b68837f2d7033fc9a5684d4f3c120e05a02207363c0632013413b06d8680f341de475978aa6786a5c98e38ab24907409efef501ffffffff02f0006bee000000001976a914a9fda41bc510f39afa8ddee2c35aa582b29d9a8988ac00ca9a3b000000001976a914f8c14e6cc01be9e859ff7ef5907c37e3f158028888ac00000000
{
  "txid" : "e85d9e6b4db5db3889ac5c0a9e4a4bbd858f8a1c646490f2dcb365ccab54a721",
    "version" : 1,
    "locktime" : 0,
    "vin" : [
    {
      "txid" : "29967fed6f60022d8c157b806dbc317a36609c302da74219c1376df279a3bf64",
      "vout" : 0,
      "scriptSig" : {
        "asm" : "3045022100e8ead6e71e6a94a7a7a768dff69e843b68837f2d7033fc9a5684d4f3c120e05a02207363c0632013413b06d8680f341de475978aa6786a5c98e38ab24907409efef501",
        "hex" : "483045022100e8ead6e71e6a94a7a7a768dff69e843b68837f2d7033fc9a5684d4f3c120e05a02207363c0632013413b06d8680f341de475978aa6786a5c98e38ab24907409efef501"
      },
      "sequence" : 4294967295
    }
  ],
    "vout" : [
    {
      "value" : 39.99990000,
      "n" : 0,
      "scriptPubKey" : {
        "asm" : "OP_DUP OP_HASH160 a9fda41bc510f39afa8ddee2c35aa582b29d9a89 OP_EQUALVERIFY OP_CHECKSIG",
        "hex" : "76a914a9fda41bc510f39afa8ddee2c35aa582b29d9a8988ac",
        "reqSigs" : 1,
        "type" : "pubkeyhash",
        "addresses" : [
          "mw1nLmAv7XbsTTTM3U5he4txmojw7fK1Z4"
          ]
      }
    },
    {
      "value" : 10.00000000,
      "n" : 1,
      "scriptPubKey" : {
        "asm" : "OP_DUP OP_HASH160 f8c14e6cc01be9e859ff7ef5907c37e3f1580288 OP_EQUALVERIFY OP_CHECKSIG",
        "hex" : "76a914f8c14e6cc01be9e859ff7ef5907c37e3f158028888ac",
        "reqSigs" : 1,
        "type" : "pubkeyhash",
        "addresses" : [
          "n4CFSngUFmBDiA5azRvfc91PPUNn1Bnkan"
          ]
      }
    }
  ]
}

